{
  "contractName": "NativeNftSale",
  "abi": [
    {
      "anonymous": false,
      "inputs": [
        {
          "indexed": true,
          "internalType": "uint256",
          "name": "tokenId",
          "type": "uint256"
        },
        {
          "indexed": true,
          "internalType": "uint256",
          "name": "PRICE",
          "type": "uint256"
        },
        {
          "indexed": true,
          "internalType": "address",
          "name": "receiver",
          "type": "address"
        },
        {
          "indexed": false,
          "internalType": "address",
          "name": "buyer",
          "type": "address"
        }
      ],
      "name": "BuyNFT",
      "type": "event"
    },
    {
      "anonymous": false,
      "inputs": [
        {
          "indexed": true,
          "internalType": "address",
          "name": "owner",
          "type": "address"
        },
        {
          "indexed": true,
          "internalType": "address",
          "name": "nft",
          "type": "address"
        }
      ],
      "name": "Initialized",
      "type": "event"
    },
    {
      "anonymous": false,
      "inputs": [
        {
          "indexed": true,
          "internalType": "address",
          "name": "previousOwner",
          "type": "address"
        },
        {
          "indexed": true,
          "internalType": "address",
          "name": "newOwner",
          "type": "address"
        }
      ],
      "name": "OwnershipTransferred",
      "type": "event"
    },
    {
      "anonymous": false,
      "inputs": [
        {
          "indexed": true,
          "internalType": "address",
          "name": "oldProxy",
          "type": "address"
        },
        {
          "indexed": true,
          "internalType": "address",
          "name": "newProxy",
          "type": "address"
        }
      ],
      "name": "UpdateNftProxy",
      "type": "event"
    },
    {
      "anonymous": false,
      "inputs": [
        {
          "indexed": true,
          "internalType": "uint256",
          "name": "oldPrice",
          "type": "uint256"
        },
        {
          "indexed": true,
          "internalType": "uint256",
          "name": "newPrice",
          "type": "uint256"
        }
      ],
      "name": "UpdatePrice",
      "type": "event"
    },
    {
      "inputs": [],
      "name": "initialized",
      "outputs": [
        {
          "internalType": "bool",
          "name": "",
          "type": "bool"
        }
      ],
      "stateMutability": "view",
      "type": "function"
    },
    {
      "inputs": [],
      "name": "nftAddress",
      "outputs": [
        {
          "internalType": "address",
          "name": "",
          "type": "address"
        }
      ],
      "stateMutability": "view",
      "type": "function"
    },
    {
      "inputs": [],
      "name": "nftPrice",
      "outputs": [
        {
          "internalType": "uint256",
          "name": "",
          "type": "uint256"
        }
      ],
      "stateMutability": "view",
      "type": "function"
    },
    {
      "inputs": [],
      "name": "owner",
      "outputs": [
        {
          "internalType": "address",
          "name": "",
          "type": "address"
        }
      ],
      "stateMutability": "view",
      "type": "function"
    },
    {
      "inputs": [],
      "name": "renounceOwnership",
      "outputs": [],
      "stateMutability": "nonpayable",
      "type": "function"
    },
    {
      "inputs": [
        {
          "internalType": "address",
          "name": "newOwner",
          "type": "address"
        }
      ],
      "name": "transferOwnership",
      "outputs": [],
      "stateMutability": "nonpayable",
      "type": "function"
    },
    {
      "inputs": [],
      "name": "typeMapper",
      "outputs": [
        {
          "internalType": "contract NftTypeMapper",
          "name": "",
          "type": "address"
        }
      ],
      "stateMutability": "view",
      "type": "function"
    },
    {
      "stateMutability": "payable",
      "type": "receive"
    },
    {
      "inputs": [
        {
          "internalType": "address",
          "name": "owner",
          "type": "address"
        },
        {
          "internalType": "address",
          "name": "_nft",
          "type": "address"
        },
        {
          "internalType": "uint256",
          "name": "_price",
          "type": "uint256"
        }
      ],
      "name": "initialize",
      "outputs": [],
      "stateMutability": "nonpayable",
      "type": "function"
    },
    {
      "inputs": [
        {
          "internalType": "address",
          "name": "receiverAddress",
          "type": "address"
        },
        {
          "internalType": "enum NftType",
          "name": "nftType",
          "type": "uint8"
        }
      ],
      "name": "buyNft",
      "outputs": [
        {
          "internalType": "uint256",
          "name": "",
          "type": "uint256"
        }
      ],
      "stateMutability": "payable",
      "type": "function"
    },
    {
      "inputs": [
        {
          "internalType": "uint256",
          "name": "_nftPrice",
          "type": "uint256"
        }
      ],
      "name": "updatePrice",
      "outputs": [],
      "stateMutability": "nonpayable",
      "type": "function"
    },
    {
      "inputs": [
        {
          "internalType": "address payable",
          "name": "_account",
          "type": "address"
        }
      ],
      "name": "withdraw",
      "outputs": [],
      "stateMutability": "nonpayable",
      "type": "function"
    },
    {
      "inputs": [
        {
          "internalType": "address",
          "name": "_newContract",
          "type": "address"
        }
      ],
      "name": "upgradeContract",
      "outputs": [],
      "stateMutability": "nonpayable",
      "type": "function"
    }
  ],
  "bytecode": "0x608060405234801561001057600080fd5b5061002d61002261003260201b60201c565b61003a60201b60201c565b610100565b600033905090565b6000600260009054906101000a900473ffffffffffffffffffffffffffffffffffffffff16905081600260006101000a81548173ffffffffffffffffffffffffffffffffffffffff021916908373ffffffffffffffffffffffffffffffffffffffff1602179055508173ffffffffffffffffffffffffffffffffffffffff168173ffffffffffffffffffffffffffffffffffffffff167f8be0079c531659141344cd1fd0a4f28419497f9722a3daafe3b4186f6b6457e060405160405180910390a35050565b611cfc8061010f6000396000f3fe608060405260043610620000bb5760003560e01c8063715018a6116200006d578063715018a614620001ea5780638d6cc56d14620002045780638da5cb5b146200023257806390b267b11462000262578063eb2c02231462000292578063f2fde38b14620002c057620000c3565b8063084ed15d14620000c85780630d39fc8114620000fe578063158ef93e146200012e5780631794bb3c146200015e57806351cff8d9146200018c5780635bf8633a14620001ba57620000c3565b36620000c357005b600080fd5b620000e66004803603810190620000e0919062000ce2565b620002ee565b604051620000f5919062000d44565b60405180910390f35b3480156200010b57600080fd5b506200011662000557565b60405162000125919062000d44565b60405180910390f35b3480156200013b57600080fd5b50620001466200055d565b60405162000155919062000d7e565b60405180910390f35b3480156200016b57600080fd5b506200018a600480360381019062000184919062000dcc565b62000570565b005b3480156200019957600080fd5b50620001b86004803603810190620001b2919062000e6d565b620006fa565b005b348015620001c757600080fd5b50620001d26200077e565b604051620001e1919062000eb0565b60405180910390f35b348015620001f757600080fd5b5062000202620007a2565b005b3480156200021157600080fd5b506200023060048036038101906200022a919062000ecd565b620007ba565b005b3480156200023f57600080fd5b506200024a62000803565b60405162000259919062000eb0565b60405180910390f35b3480156200026f57600080fd5b506200027a6200082d565b60405162000289919062000f6a565b60405180910390f35b3480156200029f57600080fd5b50620002be6004803603810190620002b8919062000f87565b62000853565b005b348015620002cd57600080fd5b50620002ec6004803603810190620002e6919062000f87565b6200086b565b005b60008054341462000336576040517f08c379a00000000000000000000000000000000000000000000000000000000081526004016200032d906200101a565b60405180910390fd5b600073ffffffffffffffffffffffffffffffffffffffff168373ffffffffffffffffffffffffffffffffffffffff1603620003a8576040517f08c379a00000000000000000000000000000000000000000000000000000000081526004016200039f90620010b2565b60405180910390fd5b600080549050600060018054906101000a900473ffffffffffffffffffffffffffffffffffffffff1673ffffffffffffffffffffffffffffffffffffffff1663d0def52186600360009054906101000a900473ffffffffffffffffffffffffffffffffffffffff1673ffffffffffffffffffffffffffffffffffffffff1663d047d000886040518263ffffffff1660e01b81526004016200044a919062001154565b600060405180830381865afa15801562000468573d6000803e3d6000fd5b505050506040513d6000823e3d601f19601f82011682018060405250810190620004939190620012fa565b6040518363ffffffff1660e01b8152600401620004b292919062001397565b6020604051808303816000875af1158015620004d2573d6000803e3d6000fd5b505050506040513d601f19601f82011682018060405250810190620004f89190620013e2565b90508473ffffffffffffffffffffffffffffffffffffffff1682827f2a2f0e151cd40365d95b70a3591b0ca41539504aa28189cca80f2d046e7768ce3360405162000544919062000eb0565b60405180910390a4809250505092915050565b60005481565b600160009054906101000a900460ff1681565b600160009054906101000a900460ff1615620005c3576040517f08c379a0000000000000000000000000000000000000000000000000000000008152600401620005ba9062001464565b60405180910390fd5b60018060006101000a81548160ff02191690831515021790555080600081905550816001806101000a81548173ffffffffffffffffffffffffffffffffffffffff021916908373ffffffffffffffffffffffffffffffffffffffff160217905550604051620006329062000c33565b604051809103906000f0801580156200064f573d6000803e3d6000fd5b50600360006101000a81548173ffffffffffffffffffffffffffffffffffffffff021916908373ffffffffffffffffffffffffffffffffffffffff1602179055506200069b83620008f5565b8173ffffffffffffffffffffffffffffffffffffffff168373ffffffffffffffffffffffffffffffffffffffff167f3cd5ec01b1ae7cfec6ca1863e2cd6aa25d6d1702825803ff2b7cc95010fffdc260405160405180910390a3505050565b62000704620009bb565b6000479050600081116200074f576040517f08c379a00000000000000000000000000000000000000000000000000000000081526004016200074690620014d6565b60405180910390fd5b6200077a818373ffffffffffffffffffffffffffffffffffffffff1662000a4090919063ffffffff16565b5050565b60018054906101000a900473ffffffffffffffffffffffffffffffffffffffff1681565b620007ac620009bb565b620007b86000620008f5565b565b620007c4620009bb565b6000805490508160008190555081817f8b49109cd5767f43f65aaaae99075135a684e87312ed89a5e0d69e96bed715cb60405160405180910390a35050565b6000600260009054906101000a900473ffffffffffffffffffffffffffffffffffffffff16905090565b600360009054906101000a900473ffffffffffffffffffffffffffffffffffffffff1681565b6200085d620009bb565b620008688162000b3e565b50565b62000875620009bb565b600073ffffffffffffffffffffffffffffffffffffffff168173ffffffffffffffffffffffffffffffffffffffff1603620008e7576040517f08c379a0000000000000000000000000000000000000000000000000000000008152600401620008de906200156e565b60405180910390fd5b620008f281620008f5565b50565b6000600260009054906101000a900473ffffffffffffffffffffffffffffffffffffffff16905081600260006101000a81548173ffffffffffffffffffffffffffffffffffffffff021916908373ffffffffffffffffffffffffffffffffffffffff1602179055508173ffffffffffffffffffffffffffffffffffffffff168173ffffffffffffffffffffffffffffffffffffffff167f8be0079c531659141344cd1fd0a4f28419497f9722a3daafe3b4186f6b6457e060405160405180910390a35050565b620009c562000bfe565b73ffffffffffffffffffffffffffffffffffffffff16620009e562000803565b73ffffffffffffffffffffffffffffffffffffffff161462000a3e576040517f08c379a000000000000000000000000000000000000000000000000000000000815260040162000a3590620015e0565b60405180910390fd5b565b8047101562000a86576040517f08c379a000000000000000000000000000000000000000000000000000000000815260040162000a7d9062001652565b60405180910390fd5b60008273ffffffffffffffffffffffffffffffffffffffff168260405162000aae90620016a9565b60006040518083038185875af1925050503d806000811462000aed576040519150601f19603f3d011682016040523d82523d6000602084013e62000af2565b606091505b505090508062000b39576040517f08c379a000000000000000000000000000000000000000000000000000000000815260040162000b309062001736565b60405180910390fd5b505050565b62000b498162000c06565b62000b8b576040517f08c379a000000000000000000000000000000000000000000000000000000000815260040162000b8290620017ce565b60405180910390fd5b8062000bba7f360894a13ba1a3210667c828492db98dca3e2076cc3735a920a3ca505d382bbc60001b62000c29565b60000160006101000a81548173ffffffffffffffffffffffffffffffffffffffff021916908373ffffffffffffffffffffffffffffffffffffffff16021790555050565b600033905090565b6000808273ffffffffffffffffffffffffffffffffffffffff163b119050919050565b6000819050919050565b6104d680620017f183390190565b6000604051905090565b600080fd5b600080fd5b600073ffffffffffffffffffffffffffffffffffffffff82169050919050565b600062000c828262000c55565b9050919050565b62000c948162000c75565b811462000ca057600080fd5b50565b60008135905062000cb48162000c89565b92915050565b6001811062000cc857600080fd5b50565b60008135905062000cdc8162000cba565b92915050565b6000806040838503121562000cfc5762000cfb62000c4b565b5b600062000d0c8582860162000ca3565b925050602062000d1f8582860162000ccb565b9150509250929050565b6000819050919050565b62000d3e8162000d29565b82525050565b600060208201905062000d5b600083018462000d33565b92915050565b60008115159050919050565b62000d788162000d61565b82525050565b600060208201905062000d95600083018462000d6d565b92915050565b62000da68162000d29565b811462000db257600080fd5b50565b60008135905062000dc68162000d9b565b92915050565b60008060006060848603121562000de85762000de762000c4b565b5b600062000df88682870162000ca3565b935050602062000e0b8682870162000ca3565b925050604062000e1e8682870162000db5565b9150509250925092565b600062000e358262000c55565b9050919050565b62000e478162000e28565b811462000e5357600080fd5b50565b60008135905062000e678162000e3c565b92915050565b60006020828403121562000e865762000e8562000c4b565b5b600062000e968482850162000e56565b91505092915050565b62000eaa8162000c75565b82525050565b600060208201905062000ec7600083018462000e9f565b92915050565b60006020828403121562000ee65762000ee562000c4b565b5b600062000ef68482850162000db5565b91505092915050565b6000819050919050565b600062000f2a62000f2462000f1e8462000c55565b62000eff565b62000c55565b9050919050565b600062000f3e8262000f09565b9050919050565b600062000f528262000f31565b9050919050565b62000f648162000f45565b82525050565b600060208201905062000f81600083018462000f59565b92915050565b60006020828403121562000fa05762000f9f62000c4b565b5b600062000fb08482850162000ca3565b91505092915050565b600082825260208201905092915050565b7f4e61746976654e667453616c653a20696e636f72726563742076616c75650000600082015250565b600062001002601e8362000fb9565b91506200100f8262000fca565b602082019050919050565b60006020820190508181036000830152620010358162000ff3565b9050919050565b7f4e61746976654e667453616c653a207a65726f2072656365697665722061646460008201527f7265737300000000000000000000000000000000000000000000000000000000602082015250565b60006200109a60248362000fb9565b9150620010a7826200103c565b604082019050919050565b60006020820190508181036000830152620010cd816200108b565b9050919050565b7f4e487b7100000000000000000000000000000000000000000000000000000000600052602160045260246000fd5b60018110620011175762001116620010d4565b5b50565b60008190506200112a8262001103565b919050565b60006200113c826200111a565b9050919050565b6200114e816200112f565b82525050565b60006020820190506200116b600083018462001143565b92915050565b600080fd5b600080fd5b6000601f19601f8301169050919050565b7f4e487b7100000000000000000000000000000000000000000000000000000000600052604160045260246000fd5b620011c6826200117b565b810181811067ffffffffffffffff82111715620011e857620011e76200118c565b5b80604052505050565b6000620011fd62000c41565b90506200120b8282620011bb565b919050565b600067ffffffffffffffff8211156200122e576200122d6200118c565b5b62001239826200117b565b9050602081019050919050565b60005b838110156200126657808201518184015260208101905062001249565b8381111562001276576000848401525b50505050565b6000620012936200128d8462001210565b620011f1565b905082815260208101848484011115620012b257620012b162001176565b5b620012bf84828562001246565b509392505050565b600082601f830112620012df57620012de62001171565b5b8151620012f18482602086016200127c565b91505092915050565b60006020828403121562001313576200131262000c4b565b5b600082015167ffffffffffffffff81111562001334576200133362000c50565b5b6200134284828501620012c7565b91505092915050565b600081519050919050565b600062001363826200134b565b6200136f818562000fb9565b93506200138181856020860162001246565b6200138c816200117b565b840191505092915050565b6000604082019050620013ae600083018562000e9f565b8181036020830152620013c2818462001356565b90509392505050565b600081519050620013dc8162000d9b565b92915050565b600060208284031215620013fb57620013fa62000c4b565b5b60006200140b84828501620013cb565b91505092915050565b7f436f6e747261637420616c726561647920696e697469616c697a656400000000600082015250565b60006200144c601c8362000fb9565b9150620014598262001414565b602082019050919050565b600060208201905081810360008301526200147f816200143d565b9050919050565b7f4e61746976654e667453616c653a20302062616c616e63650000000000000000600082015250565b6000620014be60188362000fb9565b9150620014cb8262001486565b602082019050919050565b60006020820190508181036000830152620014f181620014af565b9050919050565b7f4f776e61626c653a206e6577206f776e657220697320746865207a65726f206160008201527f6464726573730000000000000000000000000000000000000000000000000000602082015250565b60006200155660268362000fb9565b91506200156382620014f8565b604082019050919050565b60006020820190508181036000830152620015898162001547565b9050919050565b7f4f776e61626c653a2063616c6c6572206973206e6f7420746865206f776e6572600082015250565b6000620015c860208362000fb9565b9150620015d58262001590565b602082019050919050565b60006020820190508181036000830152620015fb81620015b9565b9050919050565b7f416464726573733a20696e73756666696369656e742062616c616e6365000000600082015250565b60006200163a601d8362000fb9565b9150620016478262001602565b602082019050919050565b600060208201905081810360008301526200166d816200162b565b9050919050565b600081905092915050565b50565b60006200169160008362001674565b91506200169e826200167f565b600082019050919050565b6000620016b68262001682565b9150819050919050565b7f416464726573733a20756e61626c6520746f2073656e642076616c75652c207260008201527f6563697069656e74206d61792068617665207265766572746564000000000000602082015250565b60006200171e603a8362000fb9565b91506200172b82620016c0565b604082019050919050565b6000602082019050818103600083015262001751816200170f565b9050919050565b7f455243313936373a206e657720696d706c656d656e746174696f6e206973206e60008201527f6f74206120636f6e747261637400000000000000000000000000000000000000602082015250565b6000620017b6602d8362000fb9565b9150620017c38262001758565b604082019050919050565b60006020820190508181036000830152620017e981620017a7565b905091905056fe608060405234801561001057600080fd5b506040518060400160405280600b81526020017f616368696576656d656e7400000000000000000000000000000000000000000081525060008080600081111561005d5761005c610139565b5b600081111561006f5761006e610139565b5b81526020019081526020016000209080519060200190610090929190610096565b506101c8565b8280546100a290610197565b90600052602060002090601f0160209004810192826100c4576000855561010b565b82601f106100dd57805160ff191683800117855561010b565b8280016001018555821561010b579182015b8281111561010a5782518255916020019190600101906100ef565b5b509050610118919061011c565b5090565b5b8082111561013557600081600090555060010161011d565b5090565b7f4e487b7100000000000000000000000000000000000000000000000000000000600052602160045260246000fd5b7f4e487b7100000000000000000000000000000000000000000000000000000000600052602260045260246000fd5b600060028204905060018216806101af57607f821691505b6020821081036101c2576101c1610168565b5b50919050565b6102ff806101d76000396000f3fe608060405234801561001057600080fd5b506004361061002b5760003560e01c8063d047d00014610030575b600080fd5b61004a60048036038101906100459190610152565b610060565b6040516100579190610218565b60405180910390f35b60606000808360008111156100785761007761023a565b5b600081111561008a5761008961023a565b5b815260200190815260200160002080546100a390610298565b80601f01602080910402602001604051908101604052809291908181526020018280546100cf90610298565b801561011c5780601f106100f15761010080835404028352916020019161011c565b820191906000526020600020905b8154815290600101906020018083116100ff57829003601f168201915b50505050509050919050565b600080fd5b6001811061013a57600080fd5b50565b60008135905061014c8161012d565b92915050565b60006020828403121561016857610167610128565b5b60006101768482850161013d565b91505092915050565b600081519050919050565b600082825260208201905092915050565b60005b838110156101b957808201518184015260208101905061019e565b838111156101c8576000848401525b50505050565b6000601f19601f8301169050919050565b60006101ea8261017f565b6101f4818561018a565b935061020481856020860161019b565b61020d816101ce565b840191505092915050565b6000602082019050818103600083015261023281846101df565b905092915050565b7f4e487b7100000000000000000000000000000000000000000000000000000000600052602160045260246000fd5b7f4e487b7100000000000000000000000000000000000000000000000000000000600052602260045260246000fd5b600060028204905060018216806102b057607f821691505b6020821081036102c3576102c2610269565b5b5091905056fea26469706673582212207326e99b1bf921f2aa6fb70c5da095c3500a7e904ffb7c3bfdc9d6fe2786cab064736f6c634300080d0033a264697066735822122006bd7190a6d50b9400ac0d76e4ff3cfee24b442667f71b2476398ec7640a668464736f6c634300080d0033",
  "immutableReferences": {},
  "source": "pragma solidity ^0.8.13;\n\nimport \"./Nft.sol\";\nimport {NftType} from \"./NftType.sol\";\nimport \"./NftTypeMapper.sol\";\nimport \"./BaseState.sol\";\nimport \"./ERC1967.sol\";\n\nimport \"@openzeppelin/contracts/access/Ownable.sol\";\nimport \"@openzeppelin/contracts/utils/Address.sol\";\n\ncontract NativeNftSale is BaseState, ERC1967, Ownable {\n    using Address for address payable;\n\n    NftTypeMapper public typeMapper;\n\n    event Initialized(address indexed owner, address indexed nft);\n\n    event UpdatePrice(uint256 indexed oldPrice, uint256 indexed newPrice);\n\n    event UpdateNftProxy(address indexed oldProxy, address indexed newProxy);\n\n    event BuyNFT(\n        uint256 indexed tokenId,\n        uint256 indexed PRICE,\n        address indexed receiver,\n        address buyer\n    );\n\n    function initialize(address owner, address _nft, uint256 _price) public {\n        require(!initialized, \"Contract already initialized\");\n        initialized = true;\n\n        nftPrice = _price;\n        nftAddress = _nft;\n        typeMapper = new NftTypeMapper();\n        _transferOwnership(owner);\n\n        emit Initialized(owner, _nft);\n    }\n\n    function buyNft(\n        address receiverAddress,\n        NftType nftType\n    ) external payable returns (uint256) {\n        require(msg.value == nftPrice, \"NativeNftSale: incorrect value\");\n        require(\n            receiverAddress != address(0),\n            \"NativeNftSale: zero receiver address\"\n        );\n\n        uint256 price = nftPrice;\n\n        uint256 tokenId = Nft(nftAddress).mint(\n            receiverAddress,\n            typeMapper.getNftTypeString(nftType)\n        );\n\n        emit BuyNFT(tokenId, price, receiverAddress, msg.sender);\n\n        return tokenId;\n    }\n\n    function updatePrice(uint256 _nftPrice) external onlyOwner {\n        uint256 oldPrice = nftPrice;\n        nftPrice = _nftPrice;\n\n        emit UpdatePrice(oldPrice, _nftPrice);\n    }\n\n    function withdraw(address payable _account) external onlyOwner {\n        uint256 balance = address(this).balance;\n\n        require(balance > 0, \"NativeNftSale: 0 balance\");\n        _account.sendValue(balance);\n    }\n\n    function upgradeContract(address _newContract) external onlyOwner {\n        _setImplementation(_newContract);\n    }\n\n    receive() external payable {}\n}\n",
  "sourcePath": "/home/mike/paima-project/example-project/contracts/nft/src/NativeNftSale.sol",
  "compiler": {
    "name": "solc",
    "version": "0.8.13+commit.abaa5c0e.Emscripten.clang"
  },
  "schemaVersion": "3.4.13",
  "updatedAt": "2023-08-28T08:26:12.722Z",
  "devdoc": {
    "kind": "dev",
    "methods": {
      "owner()": {
        "details": "Returns the address of the current owner."
      },
      "renounceOwnership()": {
        "details": "Leaves the contract without owner. It will not be possible to call `onlyOwner` functions anymore. Can only be called by the current owner. NOTE: Renouncing ownership will leave the contract without an owner, thereby removing any functionality that is only available to the owner."
      },
      "transferOwnership(address)": {
        "details": "Transfers ownership of the contract to a new account (`newOwner`). Can only be called by the current owner."
      }
    },
    "version": 1
  },
  "userdoc": {
    "kind": "user",
    "methods": {},
    "version": 1
  }
}